:100000000C947E000C94A6000C94A6000C94A60000
:100010000C94A6000C94A6000C94EE0C0C94800793
:100020000C94A6000C94A6000C94A6000C94400816
:100030000C94A6000C94A6000C94A6000C94A600A8
:100040000C9436070C94A6000C94B0050C948A0509
:100050000C94A6000C94A6000C94A6000C94A60088
:100060000C94A6000C94A600E4001B011B011B01CC
:10007000DE001B0111011B011B011B01E70009012F
:100080001B011B011B011B01F800060185148514CF
:100090008514BE14A914B81485148514BE14A914AB
:1000A00000000000240027002A00000000002500B6
:1000B00028002B00000000080002010000030407D4
:1000C00000000000000000000000000023002600E7
:1000D00029000404040404040404020202020202CB
:1000E00003030303030301020408102040800102FC
:1000F00004081020010204081020E01411241FBE7F
:10010000CFEFD8E0DEBFCDBF11E0A0E0B1E0EAE77D
:10011000F1E302C005900D92A236B107D9F723E0B2
:10012000A2E6B1E001C01D92A93EB207E1F710E0DE
:10013000CEE7D0E004C02197FE010E947F17CD37A3
:10014000D107C9F70E9440110C94BB180C94000011
:1001500061E086E00E940B0660E085E00E940B06ED
:1001600061E088E00E940B0660E087E00C940B06DB
:1001700061E086E00E940B0661E085E00E940B06CC
:1001800061E088E00E940B0661E087E00C940B06BA
:1001900085EE91E00E946504892BD1F385EE91E014
:1001A0000E94430490E0FC01E254F109E231F105C0
:1001B00008F041C0EC5CFF4F0C947F1760E086E0D4
:1001C0000E940B0661E008C00E94A80034C061E0F4
:1001D00086E00E940B0660E085E00E940B0660E06E
:1001E00088E00E940B0661E087E00E940B0623C0B6
:1001F00060E086E00E940B0661E085E00E940B064D
:1002000061E088E00E940B0660E0EECF0E94B8003B
:1002100012C06AEA70E089E00E9476066AEA70E03D
:1002200007C06FEF70E089E00E9476066FEF70E024
:1002300084E00E94760681E090E00E94900FA8CFB3
:10024000CDE2D0E007E810E0D0936B01C0936A01E3
:1002500080916A0190916B01883891050CF041C042
:100260000E94120A0E9467096093660170936701F9
:1002700080936801909369016F3071058105910544
:1002800044F40E94A8008EE390E00E94900F0E9428
:10029000B8004091660150916701609168017091CA
:1002A000690177FF05C0CB01BA010E94440905C06E
:1002B0002AE085EE91E00E942D0568E171E085EE6F
:1002C00091E00E9476058FE090E00E94900F80916F
:1002D0006A0190916B018D9690936B0180936A01F6
:1002E000B7CF10936B0100936A0180916A019091DE
:1002F0006B018D3291050CF4A7CF0E94120A0E9467
:100300006709609366017093670180936801909319
:1003100069016F3071058105910544F40E94A800C0
:100320008EE390E00E94900F0E94B8004091660119
:1003300050916701609168017091690177FF05C074
:10034000CB01BA010E94440905C02AE085EE91E084
:100350000E942D0568E171E085EE91E00E9476052E
:100360008FE090E00E94900F80916A0190916B0164
:100370008D9790936B0180936A01B7CF8F929F9274
:10038000AF92BF92CF92DF92EF92FF920E94FA0655
:10039000672B682B692B41F40E94FA0662307105C5
:1003A0008105910508F412C10E94FA06C09062010D
:1003B000D0906301E0906401F09065016C157D05BB
:1003C0008E059F0540F460936201709363018093F2
:1003D000640190936501C0906201D0906301E09048
:1003E0006401F09065019B01AC012C193D094E0997
:1003F0005F0969017A013AEFC316D104E104F104FF
:1004000008F4E4C060936201709363018093640117
:100410009093650184EF91E0A0E0B0E080939002BA
:1004200090939102A0939202B0939302109294023F
:100430001092950210929602109297028091880273
:1004400090918902A0918A02B0918B0280938C02D4
:1004500090938D02A0938E02B0938F020E94FA06B1
:10046000609388027093890280938A0290938B0232
:100470000E94FA066093840270938502809386023C
:10048000909387020E94FA066B017C016BE171E098
:100490008091C4029091C5020E9418052AE041E0B3
:1004A00050E060E070E08091C4029091C5020E942B
:1004B0002D0562E271E08091C4029091C5020E9414
:1004C00018052AE0B701A6018091C4029091C502E7
:1004D0000E942D0564E271E08091C4029091C502F2
:1004E0000E9418058091880290918902A0918A0249
:1004F000B0918B02B701A601481B590B6A0B7B0B0D
:100500002AE08091C4029091C5020E942D0564E208
:1005100071E08091C4029091C5020E94180540913B
:1005200088025091890260918A0270918B028091B9
:100530008C0290918D02A0918E02B0918F02481B87
:10054000590B6A0B7B0B2AE08091C4029091C50283
:100550000E942D0566E271E08091C4029091C5026F
:100560000E9418050E94FA06AB01BC012AE08091A6
:10057000C4029091C5020E942D0568E271E080914D
:10058000C4029091C5020E9476050E94FA066B0192
:100590007C014B015C0145E0840E911CA11CB11C47
:1005A0000E94FA066C157D058E059F0528F08616BB
:1005B0009706A806B906A0F70E94FA06609388027B
:1005C0007093890280938A0290938B02FF90EF9040
:1005D000DF90CF90BF90AF909F908F9008958F92B3
:1005E0009F92AF92BF92CF92DF92EF92FF920F93C2
:1005F0001F931092C6021092C7021092C802109266
:10060000C902109284021092850210928602109202
:1006100087020E94FA066B017C014B015C0188EBAA
:10062000880E8BE0981EA11CB11C0E94FA066C1566
:100630007D058E059F0528F086169706A806B90643
:10064000A0F785EE91E09093C5028093C4020E94CA
:100650001C090E94FA0660938402709385028093BD
:100660008602909387026FE271E08091C4029091BC
:10067000C5020E9418050E94FA066B017C014B011D
:100680005C019AE0890E911CA11CB11C0E94FA0623
:100690006C157D058E059F0528F086169706A80621
:1006A000B906A0F781E08093980200E010E022E014
:1006B00040E850E061E471E080E291E00E9486153C
:1006C00021E040E850E067E471E088EC90E00E94AF
:1006D00086150E941C09F89482E08093B0008093F4
:1006E000B10094E69093B3001092B2008093700032
:1006F00078948093CB02109297038091CA0260E0B5
:100700000E943A0661E088E00E943A0661E087E0D4
:100710000E943A0661E086E00E943A0661E085E0C8
:100720000E943A0661E089E00E943A0661E084E0B6
:100730000E943A068091CF038C3008F051C061E0EE
:100740008CE00E943A068091CF03E82FF0E09F01F1
:10075000220F331FE20FF31FE856FC4F9081907C6D
:100760009C6090831092D0031092D1036CE00E94A1
:1007700073179CE0899FB001112440E050E09B0179
:10078000240F351FF901EE0FFF1F2E0F3F1FF90138
:10079000E856FC4F908196FD16C04F5F5F4F4C307E
:1007A000510569F781110FC01092800082E080939B
:1007B00081001092850010928400B19A80916F00A0
:1007C000826080936F00E091CF03F0E0CF01880F4B
:1007D000991FE80FF91FE856FC4F808180648083E1
:1007E0006FEF70E089E00E9476066FEF70E084E0C2
:1007F0000E9476061F910F91FF90EF90DF90CF90AF
:10080000BF90AF909F908F900C94B800CF92DF92E2
:10081000EF92FF920F931F93CF93DF936C017A01B6
:100820008B01C0E0D0E0CE15DF0581F0D8016D91DD
:100830008D01D601ED91FC910190F081E02DC60172
:100840000995892B11F02196EECF7E01C701DF912A
:10085000CF911F910F91FF90EF90DF90CF9008956F
:10086000089580E090E00895FC01538D448D252F7C
:1008700030E0842F90E0821B930B541710F0CF963A
:10088000089501970895FC01918D828D981761F06C
:10089000828DDF01A80FB11D5D968C91928D9F5FB7
:1008A0009F73928F90E008958FEF9FEF0895FC0162
:1008B000918D828D981731F0828DE80FF11D858D15
:1008C00090E008958FEF9FEF0895FC01918D228DA8
:1008D000892F90E0805C9F4F821B91098F7399272D
:1008E000089585EE91E00E94650421E0892B09F4CA
:1008F00020E0822F0895FC01848DDF01A80FB11D37
:10090000A35ABF4F2C91848D90E001968F73992745
:10091000848FA689B7892C93A089B1898C91837023
:1009200080648C93938D848D981306C00288F3891C
:10093000E02D80818F7D80830895EF92FF920F9349
:100940001F93CF93DF93EC0181E0888F9B8D8C8D7B
:10095000981305C0E889F989808185FD26C0F62EA7
:100960000B8D10E00F5F1F4F0F731127E02E8C8D42
:10097000E8120CC00FB607FCFACFE889F98980812C
:1009800085FFF5CFCE010E947B04F1CF8B8DFE0158
:10099000E80FF11DE35AFF4FF0829FB7F8940B8FD9
:1009A000EA89FB89808180620AC09FB7F894EE894A
:1009B000FF896083E889F9898081837080648083FE
:1009C0009FBF81E090E0DF91CF911F910F91FF9049
:1009D000EF900895CF93DF93EC01888D8823C9F0C1
:1009E000EA89FB89808185FD05C0A889B9898C9138
:1009F00086FD0FC00FB607FCF5CF808185FFF2CFD3
:100A0000A889B9898C9185FFEDCFCE010E947B0426
:100A1000E7CFDF91CF91089580E090E0892B29F016
:100A20000E94710481110C94000008950E94A61880
:100A30006115710579F0FB0101900020E9F731970C
:100A4000AF01461B570BDC01ED91FC910280F38155
:100A5000E02D099480E090E008958F929F92AF92EC
:100A6000BF92EF92FF920F931F93CF93DF93CDB777
:100A7000DEB7A1970FB6F894DEBF0FBECDBF7C01E5
:100A8000FA01CB0119A2223008F42AE08E010F5D91
:100A90001F4F822E912CA12CB12CBF01A5019401D6
:100AA0000E941017F901CA01015011096A3014F4AB
:100AB000605D01C0695CD8016C93232B242B252B2E
:100AC00061F7B801C7010E941805A1960FB6F89406
:100AD000DEBF0FBECDBFDF91CF911F910F91FF9071
:100AE000EF90BF90AF909F908F9008950F931F93BA
:100AF000CF93DF93EC010E9418058C016EE371E047
:100B0000CE010E941805800F911FDF91CF911F9198
:100B10000F9108951F920F920FB60F9211242F93E9
:100B20003F934F935F936F937F938F939F93AF9375
:100B3000BF93EF93FF9385EE91E00E947B04FF91BA
:100B4000EF91BF91AF919F918F917F916F915F9145
:100B50004F913F912F910F900FBE0F901F901895BE
:100B60001F920F920FB60F9211242F938F939F9382
:100B7000EF93FF93E091F501F091F6018081E09110
:100B8000FB01F091FC0182FD12C090818091FE0179
:100B90008F5F8F732091FF01821751F0E091FE016A
:100BA000F0E0EB51FE4F958F8093FE0101C08081F4
:100BB000FF91EF919F918F912F910F900FBE0F900A
:100BC0001F901895833081F028F4813099F082309D
:100BD000A1F008958730A9F08830B9F08430D1F4BD
:100BE000809180008F7D03C0809180008F778093FB
:100BF0008000089584B58F7702C084B58F7D84BD51
:100C000008958091B0008F7703C08091B0008F7DF0
:100C10008093B00008951F93CF93DF93282F30E087
:100C2000F901EC54FF4F8491F901EA51FF4FD4913F
:100C3000F901EE52FF4FC491CC23C1F0162F811160
:100C40000E94E205EC2FF0E0EE0FFF1FE655FF4F8C
:100C5000A591B4919FB7F894111104C08C91D095CF
:100C6000D82302C0EC91DE2BDC939FBFDF91CF91A4
:100C70001F910895CF93DF9390E0FC01EA51FF4F5D
:100C80002491FC01EE52FF4F8491882361F190E0A2
:100C9000880F991FFC01E056FF4FC591D491FC01CC
:100CA000E655FF4FA591B491611109C09FB7F89423
:100CB0008881209582238883EC912E230BC062309B
:100CC00061F49FB7F8948881322F3095832388830D
:100CD000EC912E2B2C939FBF06C08FB7F894E88120
:100CE0002E2B28838FBFDF91CF9108951F93CF9331
:100CF000DF93182FEB0161E00E943A06209711F470
:100D000060E004C0CF3FD10539F461E0812FDF916D
:100D1000CF911F910C940B06E12FF0E0EC54FF4FA4
:100D2000E491E330F9F048F4E130B9F0E230A1F5B4
:100D300084B5806284BDC8BD34C0E730E9F0E830D6
:100D400019F1E43049F58091800080628093800041
:100D5000D0938B00C0938A0024C084B5806884BD82
:100D6000C7BD1FC080918000806880938000D093B1
:100D70008900C093880015C08091B000806880937E
:100D8000B000C093B3000DC08091B000806280932A
:100D9000B000C093B40005C0C038D1050CF0B5CF89
:100DA000AFCFDF91CF911F9108953FB7F894809115
:100DB000720190917301A0917401B091750126B5F3
:100DC000A89B05C02F3F19F00196A11DB11D3FBF83
:100DD000BA2FA92F982F8827820F911DA11DB11D11
:100DE000BC01CD0142E0660F771F881F991F4A950D
:100DF000D1F708952FB7F89460916E0170916F014B
:100E000080917001909171012FBF08958091980198
:100E1000882309F10FB6F8940F92E091AF01F09199
:100E2000B001C681D781CE0102960E94F10C80915B
:100E3000E40181508093E401809198018150809376
:100E400098010F900FBE8F89988D0E94EB0FCE01F5
:100E50000E94EB0FDBCF8091BC01823010F00E942A
:100E6000B80D0E94BE010E940C05D0CF1F920F92B8
:100E70000FB60F9211242F933F938F939F93AF93AD
:100E8000BF9380916E0190916F01A0917001B0911C
:100E9000710130919C0123E0230F2D3720F401963E
:100EA000A11DB11D05C026E8230F0296A11DB11D8D
:100EB00020939C0180936E0190936F01A093700129
:100EC000B09371018091720190917301A0917401AE
:100ED000B09175010196A11DB11D8093720190938F
:100EE0007301A0937401B0937501BF91AF919F916D
:100EF0008F913F912F910F900FBE0F901F901895DB
:100F00001F920F920FB60F9211242F933F934F937E
:100F10005F936F937F938F939F93AF93BF93CF9381
:100F2000DF93EF93FF932091CA0230E0F901EC5474
:100F3000FF4F8491F901EA51FF4FD491F901EE522C
:100F4000FF4FC491CC2379F081110E94E205EC2F70
:100F5000F0E0EE0FFF1FE853FF4FA591B491EC9125
:100F6000ED2381E009F480E02091CD023091CE02A2
:100F70002F5F3F4F3093CE022093CD029091970385
:100F8000943618F095E09093CB029091CB02933079
:100F9000B9F018F4923039F057C0943059F19530C7
:100FA00009F44CC051C081114FC02091CD02309145
:100FB000CE022436310508F443C0109297031CC0BA
:100FC000813009F041C0E091970391E09E0F90932A
:100FD0009703F0E02091CD023091CE02EE0FFF1F7B
:100FE000E653FD4F368325831092CE021092CD0238
:100FF00094E021C0811117C0E091970391E09E0F0A
:1010000090939703F0E02091CD023091CE02EE0F45
:10101000FF1FE653FD4F368325831092CE021092B8
:10102000CD0293E008C02091CD023091CE0225364A
:10103000310550F095E09093CB0206C0811104C0B9
:101040001092CE021092CD029091CC02992329F0F9
:10105000811102C02D9A01C02D98FF91EF91DF916F
:10106000CF91BF91AF919F918F917F916F915F9140
:101070004F913F912F910F900FBE0F901F90189599
:101080001F920F920FB60F9211242F933F934F93FD
:101090005F936F937F938F939F93AF93BF93EF93E0
:1010A000FF9380919B0187FF05C0109285001092ED
:1010B00084001BC020919B01022E000C330B8091F9
:1010C000BC0390E02817390784F480919B01082E17
:1010D000000C990BFC01EE0FFF1F8E0F9F1FFC01F0
:1010E000E856FC4F808186FD15C080919B018F5F83
:1010F00080939B0120919B01022E000C330B809169
:10110000BC0390E028173907C4F480919B018C3010
:1011100064F113C080919B01082E000C990BFC0117
:10112000EE0FFF1F8E0F9F1FFC01E856FC4F8081C2
:1011300060E08F730E940B06D8CF8091840090915D
:101140008500049680349C4918F480E49CE905C02D
:1011500080918400909185000496909389008093FB
:1011600088008FEF80939B013BC0209184003091D9
:10117000850080919B01082E000C990BFC01EE0F5D
:10118000FF1F8E0F9F1FFC01E856FC4F818192814B
:10119000820F931F909389008093880080919B0118
:1011A000082E000C990BFC01EE0FFF1F8E0F9F1FE6
:1011B000FC01E856FC4F808186FF12C080919B01A4
:1011C000082E000C990BFC01EE0FFF1F8E0F9F1FC6
:1011D000FC01E856FC4F808161E08F730E940B0692
:1011E000FF91EF91BF91AF919F918F917F916F91FF
:1011F0005F914F913F912F910F900FBE0F901F90D5
:101200001895E0919F01F091A0018081811103C0A8
:101210008FEF9FEF0CC0E0919F01F091A00105803E
:10122000F681E02D0680F781E02D828193819093F5
:101230007B0180937A010895E5EEF1E0A089B18900
:1012400082E08C93A485B5851C92A685B7858FEC2A
:101250008C93108EA489B58986E08C93A289B3897A
:101260008C9180618C93A289B3898C9188608C93D6
:10127000A289B3898C9180688C930288F389E02DD0
:1012800080818F7D80830895CF92DF92EF92FF92CD
:10129000CF93DF936B017C016DE285EE91E00E94BC
:1012A0009D04EC0144275527BA014C195D096E09CC
:1012B0007F092AE085EE91E00E942D058C0F9D1F8D
:1012C000DF91CF91FF90EF90DF90CF9008954F92F4
:1012D0005F926F927F928F929F92AF92BF92CF92C6
:1012E000DF92EF92FF920F931F93CF93DF931092B1
:1012F000C6031092C7031092C8031092C90360E09E
:101300008091C4030E940B06C3E0D0E0CE01019798
:10131000F1F761E08091C4030E940B0683E290E044
:101320000197F1F760E08091C4030E940B062197BA
:10133000F1F78091C2039091C3039927FC01EA5110
:10134000FF4F6491FC01EE52FF4FE491F0E0EE0F8D
:10135000FF1FE853FF4F8591949100EF19E422E0BD
:1013600030E0462F0E94960A6115710581059105AE
:1013700049F0DC01CB010196A11DB11D9C01AD011D
:101380005F7003C020E030E0A9012093C6033093D2
:10139000C7034093C8035093C903A4E6B0E00E947A
:1013A00051172AEF36E140E050E00E943217290140
:1013B0003A010E94D5064B015C0189E1C82ED12C6F
:1013C000E12CF12C0E94D506DC01CB01881999098A
:1013D000AA09BB09883E9340A105B10598F321E015
:1013E000C21AD108E108F10888EE880E83E0981E41
:1013F000A11CB11CC114D104E104F10419F7C3010B
:10140000B201DF91CF911F910F91FF90EF90DF908C
:10141000CF90BF90AF909F908F907F906F905F9094
:101420004F900895CF92DF92EF92FF92DC01A032AD
:1014300082E0B8070CF03EC0B7FD06C0A53BB10581
:101440002CF0A4EBB0E002C0A0E0B0E08091D003AB
:1014500028E830E06901C81AD10887FDD394CC0C84
:10146000DD1CCC0CDD1C0D2C000CEE08FF0880915F
:10147000D10328E532E0281B310987FD3395220F7F
:10148000331F220F331FA901330F660B770B9A010D
:10149000AB012C193D094E095F090E945C1724EB32
:1014A00030E040E050E00E943217C20ED31EE41E2E
:1014B000F51ED6019091CF039C3098F58091D00312
:1014C00048E850E0481B510987FD5395440F551FCC
:1014D000440F551FA417B5078CF08091D10328E560
:1014E00032E0281B310987FD3395220F331F220F6D
:1014F000331FAD012A173B070CF4A90142505109D3
:10150000440F551F2FB7F894892F90E0FC01EE0F80
:10151000FF1F8E0F9F1FFC01E856FC4F5283418333
:101520002FBFFF90EF90DF90CF900895CF92DF9282
:10153000EF92FF920F931F93E82FF92F05C00150F0
:1015400011092109310961F1908196239417B9F3AA
:1015500005C0015011092109310911F1908196232B
:101560009413F7CFC12CD12CE12CF12C0AC08FEFB2
:10157000C81AD80AE80AF80A0C151D052E053F05F9
:1015800079F080818623841791F36C2D7D2D8E2D2B
:101590009F2D1F910F91FF90EF90DF90CF900895B6
:1015A00060E070E080E090E01F910F91FF90EF907D
:1015B000DF90CF9008950F920FB6F8940F921F927C
:1015C00011242F923F924F925F926F927F928F924F
:1015D0009F92AF92BF92CF92DF92EF92FF920F93C2
:1015E0001F932F933F934F935F936F937F938F93AB
:1015F0009F93AF93BF93CF93DF93EF93FF93A0910C
:10160000E201B091E3010DB60D920EB60D9213BE3C
:1016100080917C018111F3C080917F0190918001C4
:1016200001969093800180937F01009799F5209116
:101630009F013091A00140919D0150919E015093D6
:10164000A00140939F0130939E0120939D01209122
:1016500081012F5F20938101E0919F01F091A00112
:101660002081211107C02FEF3FEF30937B012093A2
:101670007A0110C0E0919F01F091A0010580F681F0
:10168000E02D0680F781E02D2281338130937B01AC
:1016900020937A0120917A0130917B018217930780
:1016A00008F49CC020E019E0E0919F01F091A001B6
:1016B0003081311107C08FEF9FEF90937B018093B2
:1016C0007A018DC0E0919F01F091A0010580F68123
:1016D000E02D0680F781E02D428153818417950724
:1016E00028F450937B0140937A0179C0AF014E5F9B
:1016F0005F4FA285B38564817581E680F780EB0139
:10170000FD82EC82C681D7817B836A8311966D91BD
:101710007C9112974617570721F41296DC93CE93CB
:101720001197138612863C9131503C933C91A489C9
:10173000B5891097F9F066857785E088F188EB0127
:10174000FD82EC82C089D1897B836A831196ED90FA
:10175000FC901297BF01645F7F4FE616F70621F4F5
:101760001296DC93CE931197158A148A3C913150CE
:101770003C933C91A6893091E0013A1710F4A09374
:10178000E0011A9FD0011124BD0164547E4F7B01FA
:10179000DB011196CD91DC911297D583C4836C81C6
:1017A0007D81778366836C817D81DB0113965C93F9
:1017B0004E9312975D834C83F386E286E70138816E
:1017C0003F5F3883A091E201B091E30146895696CC
:1017D0003C91431708F468CF21E066CF20E0E09108
:1017E000E201F091E301E689D9E0ED9FF0011124D7
:1017F000E454FE4F8081823040F021E006C08091A9
:101800006C018F5F80936C0120E080916D018111EC
:1018100003C0222309F466C080917C01882321F053
:1018200081E080936D015EC010926D01A091E20194
:10183000B091E301E091E201F091E3012D913C913F
:101840008789908D82179307A8F08091E20190918B
:10185000E3018091E2019091E301259A2D9A2FEF07
:1018600067EA71E6215060407040E1F700C0000077
:101870001D9AF5CF8091E00169E001C08150482FA9
:1018800050E0649F9001659F300D1124F901E454EC
:10189000FE4F9081992391F3A181B28112960D9010
:1018A000BC91A02DB283A18321543E4FA217B30750
:1018B00031F412962D913C9113973283218399E054
:1018C000949FF001959FF00D1124E454FE4F018088
:1018D000F281E02D268137813093E3012093E201EC
:1018E0008093E001A091E201B091E301CD91CDBFE1
:1018F000DD91DEBFFF91EF91DF91CF91BF91AF916D
:101900009F918F917F916F915F914F913F912F9117
:101910001F910F91FF90EF90DF90CF90BF90AF900D
:101920009F908F907F906F905F904F903F902F90FF
:101930001F900F900FBE0F900895FC01DB010FB6B2
:10194000F8940F9240917F01509180012D913C912C
:1019500011972F3F8FEF380701F1818192816091BC
:1019600081017081761719F048175907C0F4481B98
:10197000590B4217530770F4241B350B2D933C93DE
:1019800080918101808380917F0190918001928379
:10199000818303C01D921C9202C080E001C081E0DF
:1019A0000F900FBE08950FB6F8940F9280917F01AB
:1019B000909180010F900FBE089580917C018F5F00
:1019C00080937C0108950FB6F8940F92FC01928DDC
:1019D0000F900FBE81E0911180E008950E94DB0A14
:1019E0001895CF93DF93FC01A085B1858281938107
:1019F00024813581EC013D832C83C481D5819B8377
:101A00008A8311968D919C911297E817F90721F41A
:101A10001296DC93CE931197118610868C9181508B
:101A20008C938C91DF91CF910895CF93DF939C019C
:101A3000FB01DC011196CD91DC911297D383C28317
:101A40008C819D81958384838C819D81DC0113969B
:101A50007C936E9312977D836C8331872087F90185
:101A600080818F5F8083DF91CF9108950F931F93C3
:101A7000CF93DF93DC011596ED91FC911697C6810B
:101A8000D7818E01045F1F4FC8010E94F10C809125
:101A90007C01811114C00A501109C8010E94F10C87
:101AA0008E899091E001981710F48093E001B9E0DD
:101AB0008B9FC0011124B80184549E4F03C0B8010C
:101AC00083EB91E00E94150DE091E201F091E301BA
:101AD0009E898689891720F481E080936D0101C079
:101AE00080E0DF91CF911F910F910895EF92FF92C7
:101AF0000F931F93CF93DF93EC010FB6F8940F92DF
:101B00001E8D7C0181E1E80EF11C01E011165CF4F0
:101B10008989882341F0C7010E94360D8111009305
:101B20006D011150F3CF8FEF8E8F0F900FBE0FB658
:101B3000F8940F921D8D7E0188E0E80EF11C01E003
:101B400011165CF48885882341F0C7010E94360D88
:101B5000811100936D011150F3CF8FEF8D8F0F9096
:101B60000FBEDF91CF911F910F91FF90EF900895DD
:101B70000F920FB6F8940F921F9211242F923F925A
:101B80004F925F926F927F928F929F92AF92BF928D
:101B9000CF92DF92EF92FF920F931F932F933F9379
:101BA0004F935F936F937F938F939F93AF93BF9365
:101BB000CF93DF93EF93FF93A091E201B091E30104
:101BC0000DB60D920EB60D9280917C01882321F006
:101BD00081E080936D015EC010926D01A091E201E1
:101BE000B091E301E091E201F091E3012D913C918C
:101BF0008789908D82179307A8F08091E2019091D8
:101C0000E3018091E2019091E301259A2D9A2FEF53
:101C100087EA91E6215080409040E1F700C0000043
:101C20001D9AF5CF8091E00169E001C08150482FF5
:101C300050E0649F9001659F300D1124F901E45438
:101C4000FE4F9081992391F3A181B28112960D905C
:101C5000BC91A02DB283A18321543E4FA217B3079C
:101C600031F412962D913C9113973283218399E0A0
:101C7000949FF001959FF00D1124E454FE4F0180D4
:101C8000F281E02D268137813093E3012093E20138
:101C90008093E001A091E201B091E301CD91CDBF2D
:101CA000DD91DEBFFF91EF91DF91CF91BF91AF91B9
:101CB0009F918F917F916F915F914F913F912F9164
:101CC0001F910F91FF90EF90DF90CF90BF90AF905A
:101CD0009F908F907F906F905F904F903F902F904C
:101CE0001F900F900FBE0F9008958F929F92AF920A
:101CF000BF92CF92DF92EF92FF920F931F93CF93F9
:101D0000DF930FB6F8940F9280917C0181508093FD
:101D10007C0180917C01882311F080E0F2C08091E9
:101D2000E4018823D1F3C0E0D0E029E0F22EEE24D4
:101D3000E3948091B301882351F1E091B801F091CF
:101D4000B901C681D781CE010C960E94F10C8E019B
:101D50000E5F1F4FC8010E94F10C8E899091E00127
:101D6000981710F48093E001F89EC0011124B80187
:101D700084549E4F0E94150DE091E201F091E30121
:101D80009E8986899817A8F2E0926D01D2CFCD2B5B
:101D900011F00E940109E0906C01EE2009F4A9C045
:101DA00089E0982E88248394CC24CA94DC2C8091DA
:101DB0007C0181118CC0C0917F01D091800121965E
:101DC000D0938001C0937F012097B9F480919F0147
:101DD0009091A00120919D0130919E013093A0012E
:101DE00020939F0190939E0180939D01809181019A
:101DF0008F5F809381010E94010980917A01909107
:101E00007B01F12CC817D90708F451C0E0919F015C
:101E1000F091A0018081811105C0D0927B01C09218
:101E20007A0145C0E0919F01F091A0010580F68103
:101E3000E02D06811781D80112968D919C91139700
:101E4000C817D90728F490937B0180937A012FC09B
:101E50005801B2E0AB0EB11CC5010E94F10CF801B3
:101E600084899589892B21F0C8010C960E94F10C78
:101E7000D80156968C919091E001981710F48093B8
:101E8000E001989EC0011124B50184549E4F0E9428
:101E9000150DE091E201F091E301D80156969C9175
:101EA0008689981708F4B2CFFF24F394AFCFE0915E
:101EB000E201F091E301E6899E9EF0011124E454D1
:101EC000FE4F8081823048F0FF24F39406C0809159
:101ED0006C018F5F80936C01F12C80916D018111F9
:101EE00001C0F11080926D01EA94E11060CF109270
:101EF0006C0180916D01882309F40FCF0E94B80D09
:101F000081E00F900FBEDF91CF911F910F91FF9055
:101F1000EF90DF90CF90BF90AF909F908F900895FB
:101F2000CF93DF93EC01892B19F40E94B80D0AC0FE
:101F30000E94DD0C60E0CE010E94C5120E94750E69
:101F4000882399F3DF91CF9108950F931F93CF9337
:101F5000DF938C01FB01808191818F3F2FEF9207EE
:101F600021F4E801AF81B8850EC0D801139612960E
:101F70002D913C911397E901488159818417950768
:101F800010F0D901F4CF12968D919C911397938301
:101F90008283EC01FD83EC83B583A4831396FC93C9
:101FA000EE93129711870087F80180818F5F8083FD
:101FB000DF91CF911F910F910895FC0103969283B9
:101FC00081832FEF3FEF348323839683858390872C
:101FD000878310820895CF93DF93009751F0EC012F
:101FE0000E94DD0CCE010E941D18DF91CF910C9450
:101FF000750EDF91CF910895CF93DF93EC010E948E
:10200000DD0CCE010E948517EC010E94750E209711
:1020100069F4259A2D9A2FEF80E792E021508040B5
:102020009040E1F700C000001D9AF5CFCE01DF918E
:10203000CF910895AF92BF92CF92DF92EF92FF922D
:102040000F931F93CF93DF9300D000D01F92CDB793
:10205000DEB78C017B011D821C8280E0680198E064
:10206000C90ED11C0FB6F8940F92F801228D938DF2
:10207000291708F06DC0D28C448D41113FC080817A
:102080009181892B09F052C0F801E480F580E114B8
:10209000F10411F480E02EC0F70182A1815082A3E7
:1020A000268991A12917B1F38111F4CF5701F2E0EC
:1020B000AF0EB11CC5010E94F10CF70181A1868B06
:1020C000482F50E024E030E0241B350B358724876F
:1020D0009091E001981710F48093E00129E0249F8B
:1020E000C001259F900D1124B50184549E4F0E947C
:1020F000150D81E0F8011582148219C050E0B70176
:10210000F801828193810E94AB18F801248D8281AD
:102110009381820F911D938382832481358182175D
:10212000930720F0808191819383828380E0D39410
:10213000F801D28E9189992321F0C80141960E941D
:10214000360D81110E94B80D0F900FBE81E05FC067
:102150002C813D81232B19F40F900FBE57C08111A4
:1021600009C080918101898380917F0190918001D4
:102170009B838A830F900FBE0E94DD0C0FB6F894EC
:102180000F92F801858D8F3F09F4158EF801868D29
:102190008F3F09F4168E0F900FBEBE016C5F7F4F0C
:1021A000CE0101960E949D0C81112BC00FB6F894B0
:1021B0000F92F801928D838D0F900FBE98131BC064
:1021C000AC80BD806091E2017091E301645F7F4F5C
:1021D000C6010E94A50F61E0C5010E94C512C80199
:1021E0000E94760D0E94750E882311F081E03ACF8F
:1021F0000E94B80DFBCFC8010E94760D0E94750E9B
:10220000F5CFC8010E94760D0E94750E80E00F90F8
:102210000F900F900F900F90DF91CF911F910F9122
:10222000FF90EF90DF90CF90BF90AF900895CF9345
:10223000DF9300D000D01F92CDB7DEB79C01809114
:102240007D0190917E01009761F019827B836A8302
:102250003D832C832091E101222329F020917C01F0
:1022600002C080E005C0BE016F5F7F4F0E941A1060
:102270000F900F900F900F900F90DF91CF910895D6
:10228000789484B5826084BD84B5816084BD85B551
:10229000826085BD85B5816085BD80916E0081605D
:1022A00080936E0010928100809181008260809303
:1022B0008100809181008160809381008091800005
:1022C0008160809380008091B10084608093B10030
:1022D0008091B00081608093B00080917A0084602A
:1022E00080937A0080917A00826080937A00809156
:1022F0007A00816080937A0080917A008068809370
:102300007A001092C1000E94EF0206E911E020E07D
:1023100040EC50E065E571E086E097E00E948615AC
:10232000813009F0B4C00FB6F8940F9280917D010E
:1023300090917E01892B09F050C08BE891E00E94BA
:10234000DD0F82E891E00E94DD0F8BE891E0909331
:1023500079018093780182E891E0909377018093EE
:10236000760181E590E00E94FC0FEC01009789F175
:102370004F96998388838AE08B8F85E08C8F0FB688
:10238000F8940F92488159818B8D6C8D9A01869FAC
:10239000200D311D11243D832C831A8E5B834A83CB
:1023A00090E00197689F9001699F300D1124CA0148
:1023B000820F931F9F838E838FEF8D8F8E8FCE0121
:1023C00008960E94DD0FCE0141960E94DD0F0F900E
:1023D0000FBED0937E01C0937D010F900FBE809100
:1023E0007D0190917E01892B09F451C004E911E02F
:1023F00023E045E550E06AE571E081E293E10E9467
:102400008615813009F043C0F8942FEF3FEF3093E9
:102410007B0120937A018093E10110928001109258
:102420007F01A89590EC88E10FB6F894A895809369
:1024300060000FBE90936000A091E201B091E301B3
:10244000CD91CDBFDD91DEBFFF91EF91DF91CF91B7
:10245000BF91AF919F918F917F916F915F914F91BC
:102460003F912F911F910F91FF90EF90DF90CF90B0
:10247000BF90AF909F908F907F906F905F904F90A4
:102480003F902F901F900F900FBE0F9008950E94C5
:10249000EF020E94BE010E940C05FBCFFC0173837A
:1024A0006283918780874617570778F0421B530B4A
:1024B0008485958548175907C8F4BF016E5F7F4F23
:1024C00080917601909177010DC04217530718F45F
:1024D0006217730758F4BF016E5F7F4F80917801D8
:1024E000909179010E94A50F80E0089581E0089500
:1024F000EF92FF920F931F93CF93DF93E0917801B8
:10250000F09179018081882369F10580F681E02DC1
:1025100000811181C681D7817E0182E0E80EF11C25
:10252000C7010E94F10CE889F989CE0109958A89D1
:1025300082FFE4CF8C859D85800F911F08171907B6
:1025400060F49B838A83D987C887B701809178011B
:10255000909179010E94A50FD1CFB801CE010E94C0
:102560001711CCCF809176019091770190937901EA
:1025700080937801F0937701E0937601DF91CF911A
:102580001F910F91FF90EF900895FF920F931F936B
:10259000CF93DF93EC01F62E00917F011091800123
:1025A0008091E2019091E30102960E94F10CCF3FED
:1025B0008FEFD80789F4FF2079F06091E2017091E4
:1025C000E3016E5F7F4F81EA91E0DF91CF911F9130
:1025D0000F91FF900C94150DC00FD11FE091E201F7
:1025E000F091E301D383C2836091E2017091E30132
:1025F000C017D10768F480919D0190919E016E5F94
:102600007F4FDF91CF911F910F91FF900C94A50FF9
:1026100080919F019091A0016E5F7F4F0E94A50F56
:1026200080917A0190917B01C817D90720F4D0934B
:102630007B01C0937A01DF91CF911F910F91FF90A1
:102640000895CF93DF93CDB7DEB72A970FB6F894EE
:10265000DEBF0FBECDBFE0917801F0917901F0802F
:10266000FF2031F00580F681E02D0081118102C04C
:1026700000E010E00E94DD0C0E94D30C6C01809100
:10268000990190919A01C816D90620F40E947812F7
:1026900081E001C080E0D0929A01C092990181113D
:1026A00079C0FF20A9F1C016D106D0F10E94750EA5
:1026B000E0917801F09179010580F681E02DE680C6
:1026C000F780C70102960E94F10CD70152968C91B7
:1026D000529782FF12C01C966D917C911D97600FDE
:1026E000711F9801A601C7010E944E12882341F074
:1026F000B801C7010E94171103C08E7FF701828BBA
:10270000D7015096ED91FC915197C7010995C6C02C
:10271000E0917601F09177018081BB24B39481111F
:10272000B12CE0907D01F0907E010FB6F8940F92ED
:10273000F701858D8F3F09F4158ED7015E968C9138
:102740005E978F3F11F45E961C920F900FBEF701BB
:10275000828D811115C06091E2017091E301645F87
:102760007F4FC70141960E94150DB11004C0C801EA
:102770008C199D0902C08FEF9FEF6B2D0E94C5122F
:10278000C7010E94760D0E94750E811187C00E94BC
:10279000B80D84C00E94750E81C0811109C080915E
:1027A00081018E8380917F019091800198878F8332
:1027B0000F900FBE0E94DD0C0FB6F8940F92D80157
:1027C0005D968C915D978F3F11F45D961C92F80198
:1027D000868D8F3F09F4168E0F900FBEBE01675F86
:1027E0007F4FCE0106960E949D0C8111DDC0C8016D
:1027F0000E94E30C882309F4D1C0E984FA84609133
:10280000E2017091E301645F7F4FC6010E94A50F52
:1028100061E0C7010E94C512C8010E94760D0E94A6
:10282000750E882309F4B7C081E00FB6F8940F92B3
:10283000F801F28CFF2009F4A6C0448D41113AC082
:10284000FA94F801F28E808581114EC00F900FBE70
:10285000F980F7FC23C00C811D81D8011A968D9157
:102860009C911B97892B21F0C80102960E94F10CC4
:102870000E94D30C6C018091990190919A01C81625
:10288000D90610F40E947812D0929A01C092990150
:10289000EF2DFF0CFF0BEA30F10580F100917D0177
:1028A00010917E011A86198680E06801B1E1CB0E95
:1028B000D11CBBCF50E086819781840F951F9783F1
:1028C0008683248135818217930720F0808191814E
:1028D00097838683D80116966D917C911797CE01C8
:1028E00001960E94AB18ACCFC80108960E94360D25
:1028F000882309F4ABCF0E94B80DA8CFEA5BFF4F45
:10290000D80152968C910C947F178160F801828BCC
:10291000EA80FB80648575856E0D7F1D9701A60199
:10292000C8010E944E12882309F4B8CFD8015096EE
:10293000ED91FC915197C8010995F801828982FFB8
:10294000ADCF648575856E0D7F1DC8010E9417117E
:10295000A5CF8160F801828B6A817B81758764874E
:102960006C0D7D1D9601A601C8010E944E1296CFE6
:1029700081FD04C0C8010E94EB0F90CF8E7FD8016B
:1029800052968C938BCF29853A85232B09F005CF5E
:102990000F900FBE60CE0E94B80D46CFC8010E94B6
:1029A000760D0E94750E40CFC8010E94760D0E94E0
:1029B000750EC8010E94E30C882309F435CF4BCE75
:1029C0001092E8011092E70188EE93E0A0E0B0E0F9
:1029D0008093E9019093EA01A093EB01B093EC019D
:1029E0008AE091E09093E6018093E50185EC90E028
:1029F0009093F2018093F10184EC90E09093F401C4
:102A00008093F30180EC90E09093F6018093F501C0
:102A100081EC90E09093F8018093F70182EC90E0D4
:102A20009093FA018093F90186EC90E09093FC0179
:102A30008093FB011092FE011092FF0110920002A0
:102A400010920102109288021092890210928A025A
:102A500010928B0210928C0210928D0210928E02B4
:102A600010928F0210929002109291021092920294
:102A70001092930210929402109295021092960274
:102A8000109297028091BC038C30A0F491E0980FD3
:102A90009093BC038093CF0390E0FC01EE0FFF1FE7
:102AA0008E0F9F1FFC01E856FC4F88EB9BE0928342
:102AB000818303C08FEF8093CF038AE090E09093EF
:102AC000C3038093C2038BE090E09093C50380938F
:102AD000C40360E08AE00E943A0661E08091C4038A
:102AE0000E943A061092CE0387EE93E0A0E0B0E099
:102AF0008093CA039093CB03A093CC03B093CD03F0
:102B00008DE08093CA021092CC0208957F928F923A
:102B10009F92AF92BF92CF92DF92EF92FF920F936C
:102B20001F93CF93DF93782EA92E6B01EA01B22E6B
:102B3000CA010E94FC0F4C01892B09F462C188E292
:102B400090E00E94FC0F7C010097E9F0DC015896B0
:102B50009C928E925797AE0165EA70E0C4010E9484
:102B6000B4182197D7015796ED91FC915897EC0F27
:102B7000FD1FC114D104D9F0B701675E7F4FD601A4
:102B8000C601089607C0C4010E94EB0F3AC1A817FE
:102B9000B90749F09D014D91EB014993BE01E9014F
:102BA00028812111F4CFD70190961C9202C0E70131
:102BB000198E8B2D843008F083E0D70156968C93C4
:102BC000569791968C93919792961C9292971B96FA
:102BD0001C921E921A9755961C921E925497199603
:102BE000FC92EE92189724E030E0E901C81BD1096D
:102BF0001D96DC93CE931C975396FC92EE925297BF
:102C000093961D921D921D921C92969797961C92D8
:102C100091E19083DF01119782E28C93119723E376
:102C20002C9311977C921197AC9211971C9211974B
:102C300020E82C9311971C92119722E02C93119766
:102C400023E02C93119724E02C93119725E02C93EB
:102C5000119726E02C93119727E02C93119728E0E9
:102C60002C93119729E02C93119720E12C93119725
:102C70009C93119792E19C93119793E19C931197E8
:102C800094E19C93119795E19C93119796E19C9305
:102C9000119797E19C93119798E19C93119799E173
:102CA0009C93119790E29C93119791E29C931197BA
:102CB0008C93119783E28C9311971C9211971C921D
:102CC000119786E28C93119787E28C93119788E293
:102CD0008C93119789E28C93119780E38C931197D1
:102CE00081E38C93B697E701F983E8830115110519
:102CF00019F0F801F182E0820FB6F8940F928091FA
:102D0000E4018F5F8093E4018091E2019091E301FF
:102D1000892BD1F5F092E301E092E2018091E40188
:102D2000813009F043C08CEB91E00E94DD0F85EC0F
:102D300091E00E94DD0F8EEC91E00E94DD0F87EDA7
:102D400091E00E94DD0F8BED93E00E94DD0F82ED9C
:102D500093E00E94DD0F83EB91E00E94DD0F8AEA91
:102D600091E00E94DD0F81EA91E00E94DD0F8BED82
:102D700093E09093A00180939F0182ED93E0909364
:102D80009E0180939D0112C08091E10181110EC0CE
:102D9000E091E201F091E3019689D70156968C917A
:102DA000891720F0F092E301E092E2018091E403C0
:102DB0008F5F8093E403E7018E899091E00198177B
:102DC00010F48093E001D9E08D9FC0011124B70178
:102DD0006E5F7F4F84549E4F0E94150D0F900FBE63
:102DE0008091E101882359F0E091E201F091E30143
:102DF0009689F7018689981710F40E94B80D81E032
:102E000001C08FEFDF91CF911F910F91FF90EF9055
:102E1000DF90CF90BF90AF909F908F907F9008955C
:102E2000A1E21A2EAA1BBB1BFD010DC0AA1FBB1FCE
:102E3000EE1FFF1FA217B307E407F50720F0A21B40
:102E4000B30BE40BF50B661F771F881F991F1A94AD
:102E500069F760957095809590959B01AC01BD01D7
:102E6000CF010895052E97FB1EF400940E94491788
:102E700057FD07D00E94101707FC03D04EF40C94A6
:102E8000491750954095309521953F4F4F4F5F4FD3
:102E9000089590958095709561957F4F8F4F9F4FC6
:102EA00008950E946417A59F900DB49F900DA49F54
:102EB000800D911D11240895B7FF0C9451170E94A5
:102EC0005117821B930B0895A29FB001B39FC001BD
:102ED000A39F700D811D1124911DB29F700D811D46
:102EE0001124911D0895991B79E004C0991F96172C
:102EF00008F0961B881F7A95C9F780950895EE0F04
:102F0000FF1F0590F491E02D09940F931F93CF9329
:102F1000DF938230910510F482E090E0E091E703C6
:102F2000F091E80320E030E0A0E0B0E0309719F144
:102F3000408151810281138148175907C8F08417D5
:102F4000950769F4109731F012960C931297139627
:102F50001C9327C00093E7031093E80322C02115B8
:102F6000310519F04217530718F49A01BD01EF011A
:102F7000DF01F801DBCF21153105F9F0281B390BF2
:102F80002430310580F48A819B816115710521F01F
:102F9000FB019383828304C09093E8038093E7034B
:102FA000FE01329644C0FE01E20FF31F819391931C
:102FB00022503109398328833AC02091E5033091AA
:102FC000E603232B41F42091020130910301309359
:102FD000E6032093E50320910001309101012115C2
:102FE000310541F42DB73EB74091040150910501E0
:102FF000241B350BE091E503F091E603E217F3079C
:10300000A0F42E1B3F0B2817390778F0AC014E5F58
:103010005F4F2417350748F04E0F5F1F5093E603AC
:103020004093E5038193919302C0E0E0F0E0CF018B
:10303000DF91CF911F910F910895CF93DF93009768
:1030400009F481C0FC01329713821282A091E70338
:10305000B091E803109781F420813181820F931F92
:103060002091E5033091E6032817390751F5F093D5
:10307000E603E093E50367C0ED0120E030E0CE1702
:10308000DF0740F44A815B819E0141155105F1F053
:10309000EA01F5CFD383C28340815181840F951F0C
:1030A000C817D90759F488819981840F951F029612
:1030B000918380838A819B8193838283211531054B
:1030C00029F4F093E803E093E7033DC0E901FB83B3
:1030D000EA8349915991C40FD51FEC17FD0761F49C
:1030E00080819181840F951F0296E90199838883DD
:1030F000828193819B838A83E0E0F0E012968D9138
:103100009C911397009719F0FD01DC01F7CF8D9189
:103110009C9111979D012E5F3F4F820F931F20912D
:10312000E5033091E6032817390769F4309729F44D
:103130001092E8031092E70302C013821282B09348
:10314000E603A093E503DF91CF91089581E090E03D
:10315000F8940C94BB18FB01DC0102C001900D92A5
:1031600041505040D8F70895DC0101C06D934150A3
:0A3170005040E0F70895F894FFCFF7
:10317A000000E9038000000000009D0406043404F6
:10318A00EA04650443045704636D00564D445045F0
:10319A005F003A323A007C005F564D445045005673
:1031AA004D4450565F317C315F564D4450560D0A9E
:1031BA0000536572766F00426C7565746F6F746840
:1031CA00526561640049444C4500546D722053763F
:0231DA00630090
:00000001FF
